:060000000C942A000C9490
:1000060000000C9400000C9400000C9400000C946A
:1000160000000C9400000C9400000C9400000C945A
:1000260000000C9400000C9400000C9400000C944A
:1000360000000C9400000C9400000C9400000C943A
:1000460000000C9400000C9400000C940000F8943E
:10005600EE27ECBBF1E0FBBFEBBFE5BF8DE0A2E016
:10006600BB27ED938A95E9F780E098E0A0E6ED934B
:100076000197E9F7EFE5EDBFE8E0EEBFC0E6D2E0B5
:100086000C946100909A919808959098919A089589
:10009600909B04C0919902C04ED109F401C008C0DA
:1000A6000AC0909904C0919B02C04AD109F403C0CA
:1000B600E1E0F0E00895E0E0F0E00895E0EFEABB6B
:1000C600E0E0E7BBE4BBEFEFE1BB44245524B29B81
:1000D60003C0E3E0F0E009C0B19B03C0E2E0F0E05A
:1000E60004C0B09B03C0E1E0F0E03F01989B03C071
:1000F600E1E0F0E009C0999B03C0E2E0F0E004C053
:100106009A9B03C0E3E0F0E04F01B29B03C0E3E03B
:10011600F0E009C0B19B03C0E2E0F0E004C0B09B90
:1001260003C0E1E0F0E03F01989B03C0E1E0F0E0AE
:1001360009C0999B03C0E2E0F0E004C09A9B03C0AB
:10014600E3E0F0E04F01C89902C09B9B0BC0E3E0DF
:10015600F0E02F014614570411F0C89901C001C000
:10016600DC9A21C0C99904C0CA9902C09C9B0DC0E3
:10017600E2E0F0E02F014614570431F0C99B02C0BB
:10018600DD9A02C0CA99DE9A0EC0CB9902C09D9B29
:100196000AC0E1E0F0E02F014614570411F0CB99B4
:1001A60001C001C0DF9A74DF319711F4CED009F097
:1001B60005C0E4E6F2E0CED0DD981EC072DF3197CE
:1001C60011F4C3D009F005C0ECE6F2E0C3D0DE9826
:1001D60013C0B6D041F4EAE6F2E0BCD0E2E6F2E0C3
:1001E600B9D0DF9809C0A7D039F4EEE6F2E0B2D074
:1001F600E6E6F2E0AFD0DC98E0916202F0916302AD
:10020600A0916002B0916102AE0FBF1FE09164023F
:10021600F0916502AE0FBF1FA2D0EA0FFB1FA0919F
:100226006802B0916902AE0FBF1F9ED0AE0FBF1F0E
:10023600E0916C02F0916D02AE0FBF1FE0916E026D
:10024600F0916F02EA0FFB1F309711F49098919886
:10025600042C0528B1F04614570489F0F201D301A5
:100266000E94C501E13029F4F201A8E6B2E081D08E
:1002760006C0E03021F4F201A0E6B2E07AD04424D0
:100286005524DD9B06C0E4E6F2E0A1E0B0E0A083E1
:10029600B183DE9B06C0ECE6F2E0A1E0B0E0A0830D
:1002A600B183F6DE309741F4FCDE309729F4E3E0C3
:1002B600F0E0E815F90509F42FC042D069F4E091A1
:1002C6006402F0916502319729F049D0E130A0E04F
:1002D600FA0709F4D7DE20C038D081F4DD98DE981D
:1002E6003ED0E130A0E0FA0711F4CCDE06C03CD0E7
:1002F600E130A0E0FA0709F4C8DE0EC01CD061F4B4
:1003060033D0319741F0E0916C02F0916D02E1300B
:10031600A0E0FA0709F4B9DEB29B02C0969A08C0BB
:10032600B19B03C0969A979804C0B09B02C096985A
:10033600979AEBCEFFCFE3E0F0E0E615F7050895D8
:10034600E1E0F0E0E615F7050895E2E0F0E0E615F5
:10035600F7050895A0E0B0E0A083B1830895E09189
:100366006602F09167020895E0916A02F0916B02CD
:100376000895EE0FFF1FAE0FBF1FE1E0F0E0ED9313
:10038600FC930895EA17FB07E1E00CF0EE270895C9
:00000001FF
